S01400004C61625F345F4430303033452E73726563C3
S11300000C9438000C94AC040C9418050C948405DE
S11300100C94F0050C945C060C9455000C94970C0D
S11300200C9455000C94440C0C94C8060C9434079E
S11300300C94A0070C940C080C9478080C94E40815
S11300400C9450090C94BC090C94280A0C94940A3E
S11300500C94000B0C946C0B0C94D80B6300B40040
S1130060BD00C600CF00D800E100EA00F300FC00A8
S113007011241FBECFEFD4E0DEBFCDBF11E0A0E05E
S1130080B1E0E6E3F1E202C005900D92A431B107BC
S1130090D9F724E0A4E1B1E001C01D92A736B2076C
S11300A0E1F70E9429030C9499100C9400007894B1
S11300B090E0FC01F097EA30F10508F054C0E25DED
S11300C0FF4F0C943E1021E030E045E050E0E5E0C5
S11300D0F0E081E090E06230710509F43AC10CF47B
S11300E094C06430710509F4C9C00CF401C16530D1
S11300F07105C1F56091EE006F766093EE0060913A
S1130100EE006F707091EE0082959295907F982723
S1130110807F9827862B872B8093EE008091F300B5
S11301208F70E295F295F07FFE27E07FFE27E82BA3
S1130130E093F3008091F8008F7042955295507FC0
S11301405427407F5427482B4093F8008091FD00AA
S11301508F7022953295307F3227207F3227282BCB
S11301602093FD00F894089520E030E041E050E051
S1130170E1E0F0E080E090E0AECF21E030E04EE05E
S113018050E0E1E0F0E081E090E0A5CF21E030E054
S11301904BE050E0E1E0F0E081E090E09CCF20E033
S11301A030E04BE050E0E5E0F0E080E090E093CF19
S11301B021E030E04BE050E0E4E0F0E081E090E06A
S11301C08ACF21E030E04FE050E0E4E0F0E081E06D
S11301D090E081CF20E030E041E050E0E1E0F0E069
S11301E081E090E078CF21E030E04FE050E0E5E0BE
S11301F0F0E081E090E06FCF21E030E04BE050E0B0
S1130200E5E0F0E081E090E066CF6115710509F466
S113021056C06130710509F0A5CF6091EC006F7094
S113022082959295907F9827807F9827862B80933C
S1130230EC008091F1008F70E295F295F07FFE273B
S1130240E07FFE27E82BE093F1008091F6008F70A9
S113025042955295507F5427407F5427482B409312
S1130260F6008091FB008F7022953295307F322703
S1130270207F3227282B2093FB0074CF6091EE005F
S1130280667F6093EE006091EE00607F7091EE00F7
S1130290862B872B8093EE008091F300807FE82BE0
S11302A0E093F3008091F800807F482B4093F8009E
S11302B08091FD00807F282B2093FD0053CF609117
S11302C0EC00607F862B8093EC008091F100807FAE
S11302D0E82BE093F1008091F600807F482B409357
S11302E0F6008091FB00807F282B2093FB003ACFFF
S11302F06091ED006F7082959295907F9827807F32
S11303009827862B8093ED008091F2008F70E29500
S1130310F295F07FFE27E07FFE27E82BE093F200C2
S11303208091F7008F7042955295507F5427407FFB
S11303305427482B4093F7008091FC008F7022953E
S11303403295307F3227207F3227282B2093FC00E0
S113035009CF6091ED00607F862B8093ED00809142
S1130360F200807FE82BE093F2008091F700807F19
S1130370482B4093F7008091FC00807F282B20932A
S1130380FC00F0CECF92DF92EF92FF920F931F9377
S1130390CF93DF93EC018EA19FA1892B89F18091EA
S11303A0EE00897F8093EE008091EE00806680935A
S11303B0EE008E010C5F1F4FC12CD12C8EEAE82E6B
S11303C083E0F82E20E030E0A90160E070E0CB018A
S11303D00E94870D045F1F4F94E0C92ED12C20E0AA
S11303E030E0A90160E070E0CB010E94870DDF914D
S11303F0CF911F910F91FF90EF90DF90CF900895D0
S11304008091EE008F798093EE008091EE008660FB
S11304108093EE00CECFCF92DF92EF92FF920F93B4
S11304201F93CF93DF93EC0189A5882319F088A546
S1130430811122C01E9B1DC01F9902C081E088A7A4
S1130440C12CD12C2BE0E22E22E0F22E8E0120E0F2
S113045030E0A90169E07DE380E090E00E94870D2F
S1130460DF91CF911F910F91FF90EF90DF90CF908C
S1130470089581E089A7E4CF1E9B02C01F9925C07F
S113048040E050E06FE873E0CE014C960E94F70E16
S1130490C12CD12C82ECE82E81E0F82E8E0120E0D4
S11304A030E0A90160E070E0CB010E94870D9BE081
S11304B0E92E92E0F92E20E030E0A90165E37CE02A
S11304C080E090E00E94870DCBCF19A618A6C8CF74
S11304D0FC0126A137A1232B51F02CE0FC0134961A
S11304E0DC015C9601900D922A95E1F708952CE0C9
S11304F07096DC015C9601900D922A95E1F70895BF
S1130500CF92DF92EF92FF920F931F938C01629B25
S113051002C0639907C040E050E068E672E0C80199
S11305200E94F70EC12CD12C82ECE82E81E0F82E2B
S113053020E030E0A90160E070E0CB010E94870D6B
S11305401F910F91FF90EF90DF90CF900895CF927D
S1130550DF92EF92FF920F931F93CF93DF93EC01FF
S11305601E9B30C01F9B54C01C9B09C0DF91CF91C0
S11305701F910F91FF90EF90DF90CF9008958C0121
S1130580045E1F4F40E050E06AEA73E0C8010E9435
S1130590F70E40E050E0892BC1F562EA73E0C80130
S11305A00E94F70EC12CD12C82ECE82E81E0F82EAB
S11305B08E0120E030E0A90160E070E0CB010E94F0
S11305C0870DD4CF40E050E06FE873E04C960E9472
S11305D0F70EC12CD12C9BE0E92E92E0F92E8E016E
S11305E020E030E0A90160E070E0CB010E94870DBB
S11305F022ECE22E21E0F22E20E030E0A90160E0BE
S113060070E0CB010E94870DB1CF6AE973E0C7CFD8
S113061040E050E064E873E0D9CF86E38093E500DE
S113062087E08093E6008FE08093E70080EC80937E
S1130630E4009DE0909381009CE090936B0020ED9A
S113064020936C008CBB8DBB25B99EB914B815BE24
S11306500895CF93DF93CDB7DEB7C254D1090FB657
S1130660F894DEBF0FBECDBF0E940D03CE01C79626
S11306702CE0FC0111922A95E9F72CE0E8E0F1E086
S1130680DE019B9601900D922A95E1F71A82198258
S11306901C821B822CE0FC01DE01159601900D9258
S11306A02A95E1F72CE0FE01BB96DE0151960190FC
S11306B00D922A95E1F72CE0FC01DE015D96019094
S11306C00D922A95E1F719A61AA642E067EA72E0AC
S11306D0C6970E94F40F41E060E872E0CE010196F3
S11306E00E94F40F40E050E062EC71E0CE0101960C
S11306F00E940E10CE5BDF4F0FB6F894DEBF0FBE24
S1130700CDBFDF91CF910895FC012481358112166C
S1130710130624F421503109358324830895FC0100
S1130720248135812336310524F42F5F3F4F3583EF
S113073024830895FC01848195819783868315829F
S113074014820895FC01868197819583848317829E
S113075016820895FC01848195810895EF92FF9299
S11307600F931F93CF93DF93EB01FC01E480F5809B
S1130770C70164E670E00E942A100AE010E0B801A4
S11307800E942A10862FBE01805D0E945700219688
S1130790C701B8010E942A10BE01805DDF91CF918C
S11307A01F910F91FF90EF900C945700CF93DF931C
S11307B000D000D0CDB7DEB787E092E027EE32E07C
S11307C0FC01709791838083409682179307C1F749
S11307D01092D8021092D702E2E4F1E08FE591E0A2
S11307E0918380838CE791E0968F858FA9E9B1E0AE
S11307F0B3AFA2AF1D921C92FA83E983E3E4F3E062
S1130800FC83EB8389819A8106960E9458108B8120
S11308109C81E981FA81978B868B918F808F89E700
S11308209FE0948F838F158214827D96FA83E983E7
S1130830EB81FC81E05AFF4FFC83EB8389819A8131
S1130840865B9140F9F6EAEDF1E01182108215829F
S1130850148213821282E1E6F0E080E88083108241
S1130860109285001092840084E08093810081E0DE
S113087080936F000F900F900F900F90DF91CF91A6
S11308800895CF93DF9300D0CDB7DEB79A838983E1
S1130890809100019091010106960E945810892BC5
S11308A029F00F900F90DF91CF91089589819A815B
S11308B0909301018093000161E070E006960E942C
S11308C078100F931F93CF93DF93E0911C01F09165
S11308D01D013097F1F0809104019091050100977A
S11308E0C1F0C0910201D0910301AA81BB8110978C
S11308F0A9F0468157816085718516960D911D91E9
S11309002D913C911997401B510B620B730B77FD92
S113091005C0DF91CF911F910F910895FC012081B3
S113092031813093050120930401D183C0839093D6
S1130930030180930201DF91CF911F910F910C94D9
S113094041048FEF8093EC008093ED008093EE00E0
S113095081E083BF8895FDCF1F920F920FB60F924F
S113096011242F933F934F935F936F937F938F93B0
S11309709F93AF93BF93EF93FF9320911401309112
S113098015014091840050918500C901032E000C8B
S1130990AA0BBB0BDC019927882760E070E0842B4D
S11309A0952BA62BB72B8093160190931701A09338
S11309B01801B0931901B09B1BC040918400509161
S11309C08500C9010196092E000CAA0BBB0BDC01A2
S11309D09927882760E070E0842B952BA62BB72BF2
S11309E08093160190931701A0931801B0931901F5
S11309F0E091B601F091B701309739F060E070E012
S1130A0080911E0190911F0109950E946104FF913C
S1130A10EF91BF91AF919F918F917F916F915F9172
S1130A204F913F912F910F900FBE0F901F901895EB
S1130A301F920F920FB60F9211242F933F934F934F
S1130A405F936F937F938F939F93AF93BF93EF9332
S1130A50FF9320911401309115014091840050912D
S1130A608500C901032E000CAA0BBB0BDC019927DE
S1130A70882760E070E0842B952BA62BB72B8093FE
S1130A80160190931701A0931801B0931901B09B1C
S1130A901BC04091840050918500C9010196092E24
S1130AA0000CAA0BBB0BDC019927882760E070E0DF
S1130AB0842B952BA62BB72B8093160190931701AB
S1130AC0A0931801B0931901E091B801F091B90114
S1130AD0309739F061E070E080912001909121011C
S1130AE009950E946104FF91EF91BF91AF919F918D
S1130AF08F917F916F915F914F913F912F910F90C3
S1130B000FBE0F901F9018951F920F920FB60F9261
S1130B1011242F933F934F935F936F937F938F93FE
S1130B209F93AF93BF93EF93FF9320911401309160
S1130B3015014091840050918500C901032E000CD9
S1130B40AA0BBB0BDC019927882760E070E0842B9B
S1130B50952BA62BB72B8093160190931701A09386
S1130B601801B0931901B09B1BC0409184005091AF
S1130B708500C9010196092E000CAA0BBB0BDC01F0
S1130B809927882760E070E0842B952BA62BB72B40
S1130B908093160190931701A0931801B093190143
S1130BA0E091BA01F091BB01309739F062E070E056
S1130BB0809122019091230109950E946104FF9183
S1130BC0EF91BF91AF919F918F917F916F915F91C1
S1130BD04F913F912F910F900FBE0F901F9018953A
S1130BE01F920F920FB60F9211242F933F934F939E
S1130BF05F936F937F938F939F93AF93BF93EF9381
S1130C00FF9320911401309115014091840050917B
S1130C108500C901032E000CAA0BBB0BDC0199272C
S1130C20882760E070E0842B952BA62BB72B80934C
S1130C30160190931701A0931801B0931901B09B6A
S1130C401BC04091840050918500C9010196092E72
S1130C50000CAA0BBB0BDC019927882760E070E02D
S1130C60842B952BA62BB72B8093160190931701F9
S1130C70A0931801B0931901E091BC01F091BD015A
S1130C80309739F063E070E0809124019091250160
S1130C9009950E946104FF91EF91BF91AF919F91DB
S1130CA08F917F916F915F914F913F912F910F9011
S1130CB00FBE0F901F9018951F920F920FB60F92B0
S1130CC011242F933F934F935F936F937F938F934D
S1130CD09F93AF93BF93EF93FF93209114013091AF
S1130CE015014091840050918500C901032E000C28
S1130CF0AA0BBB0BDC019927882760E070E0842BEA
S1130D00952BA62BB72B8093160190931701A093D4
S1130D101801B0931901B09B1BC0409184005091FD
S1130D208500C9010196092E000CAA0BBB0BDC013E
S1130D309927882760E070E0842B952BA62BB72B8E
S1130D408093160190931701A0931801B093190191
S1130D50E091BE01F091BF01309739F064E070E09A
S1130D60809126019091270109950E946104FF91C9
S1130D70EF91BF91AF919F918F917F916F915F910F
S1130D804F913F912F910F900FBE0F901F90189588
S1130D901F920F920FB60F9211242F933F934F93EC
S1130DA05F936F937F938F939F93AF93BF93EF93CF
S1130DB0FF932091140130911501409184005091CA
S1130DC08500C901032E000CAA0BBB0BDC0199277B
S1130DD0882760E070E0842B952BA62BB72B80939B
S1130DE0160190931701A0931801B0931901B09BB9
S1130DF01BC04091840050918500C9010196092EC1
S1130E00000CAA0BBB0BDC019927882760E070E07B
S1130E10842B952BA62BB72B809316019093170147
S1130E20A0931801B0931901E091C001F091C101A0
S1130E30309739F065E070E08091280190912901A4
S1130E4009950E946104FF91EF91BF91AF919F9129
S1130E508F917F916F915F914F913F912F910F905F
S1130E600FBE0F901F9018951F920F920FB60F92FE
S1130E7011242F933F934F935F936F937F938F939B
S1130E809F93AF93BF93EF93FF93209114013091FD
S1130E9015014091840050918500C901032E000C76
S1130EA0AA0BBB0BDC019927882760E070E0842B38
S1130EB0952BA62BB72B8093160190931701A09323
S1130EC01801B0931901B09B1BC04091840050914C
S1130ED08500C9010196092E000CAA0BBB0BDC018D
S1130EE09927882760E070E0842B952BA62BB72BDD
S1130EF08093160190931701A0931801B0931901E0
S1130F00E091C201F091C301309739F066E070E0DE
S1130F1080912A0190912B0109950E946104FF910F
S1130F20EF91BF91AF919F918F917F916F915F915D
S1130F304F913F912F910F900FBE0F901F901895D6
S1130F401F920F920FB60F9211242F933F934F933A
S1130F505F936F937F938F939F93AF93BF93EF931D
S1130F60FF93209114013091150140918400509118
S1130F708500C901032E000CAA0BBB0BDC019927C9
S1130F80882760E070E0842B952BA62BB72B8093E9
S1130F90160190931701A0931801B0931901B09B07
S1130FA01BC04091840050918500C9010196092E0F
S1130FB0000CAA0BBB0BDC019927882760E070E0CA
S1130FC0842B952BA62BB72B809316019093170196
S1130FD0A0931801B0931901E091C401F091C501E7
S1130FE0309739F067E070E080912C0190912D01E9
S1130FF009950E946104FF91EF91BF91AF919F9178
S11310008F917F916F915F914F913F912F910F90AD
S11310100FBE0F901F9018951F920F920FB60F924C
S113102011242F933F934F935F936F937F938F93E9
S11310309F93AF93BF93EF93FF932091140130914B
S113104015014091840050918500C901032E000CC4
S1131050AA0BBB0BDC019927882760E070E0842B86
S1131060952BA62BB72B8093160190931701A09371
S11310701801B0931901B09B1BC04091840050919A
S11310808500C9010196092E000CAA0BBB0BDC01DB
S11310909927882760E070E0842B952BA62BB72B2B
S11310A08093160190931701A0931801B09319012E
S11310B0E091C601F091C701309739F068E070E023
S11310C080912E0190912F0109950E946104FF9156
S11310D0EF91BF91AF919F918F917F916F915F91AC
S11310E04F913F912F910F900FBE0F901F90189525
S11310F01F920F920FB60F9211242F933F934F9389
S11311005F936F937F938F939F93AF93BF93EF936B
S1131110FF93209114013091150140918400509166
S11311208500C901032E000CAA0BBB0BDC01992717
S1131130882760E070E0842B952BA62BB72B809337
S1131140160190931701A0931801B0931901B09B55
S11311501BC04091840050918500C9010196092E5D
S1131160000CAA0BBB0BDC019927882760E070E018
S1131170842B952BA62BB72B8093160190931701E4
S1131180A0931801B0931901E091C801F091C9012D
S1131190309739F069E070E080913001909131012D
S11311A009950E946104FF91EF91BF91AF919F91C6
S11311B08F917F916F915F914F913F912F910F90FC
S11311C00FBE0F901F9018951F920F920FB60F929B
S11311D011242F933F934F935F936F937F938F9338
S11311E09F93AF93BF93EF93FF932091140130919A
S11311F015014091840050918500C901032E000C13
S1131200AA0BBB0BDC019927882760E070E0842BD4
S1131210952BA62BB72B8093160190931701A093BF
S11312201801B0931901B09B1BC0409184005091E8
S11312308500C9010196092E000CAA0BBB0BDC0129
S11312409927882760E070E0842B952BA62BB72B79
S11312508093160190931701A0931801B09319017C
S1131260E091CA01F091CB01309739F06AE070E067
S1131270809132019091330109950E946104FF919C
S1131280EF91BF91AF919F918F917F916F915F91FA
S11312904F913F912F910F900FBE0F901F90189573
S11312A01F920F920FB60F9211242F933F934F93D7
S11312B05F936F937F938F939F93AF93BF93EF93BA
S11312C0FF932091140130911501409184005091B5
S11312D08500C901032E000CAA0BBB0BDC01992766
S11312E0882760E070E0842B952BA62BB72B809386
S11312F0160190931701A0931801B0931901B09BA4
S11313001BC04091840050918500C9010196092EAB
S1131310000CAA0BBB0BDC019927882760E070E066
S1131320842B952BA62BB72B809316019093170132
S1131330A0931801B0931901E091CC01F091CD0173
S1131340309739F06BE070E0809134019091350171
S113135009950E946104FF91EF91BF91AF919F9114
S11313608F917F916F915F914F913F912F910F904A
S11313700FBE0F901F9018951F920F920FB60F92E9
S113138011242F933F934F935F936F937F938F9386
S11313909F93AF93BF93EF93FF93209114013091E8
S11313A015014091840050918500C901032E000C61
S11313B0AA0BBB0BDC019927882760E070E0842B23
S11313C0952BA62BB72B8093160190931701A0930E
S11313D01801B0931901B09B1BC040918400509137
S11313E08500C9010196092E000CAA0BBB0BDC0178
S11313F09927882760E070E0842B952BA62BB72BC8
S11314008093160190931701A0931801B0931901CA
S1131410E091CE01F091CF01309739F06CE070E0AB
S1131420809136019091370109950E946104FF91E2
S1131430EF91BF91AF919F918F917F916F915F9148
S11314404F913F912F910F900FBE0F901F901895C1
S11314501F920F920FB60F9211242F933F934F9325
S11314605F936F937F938F939F93AF93BF93EF9308
S1131470FF93209114013091150140918400509103
S11314808500C901032E000CAA0BBB0BDC019927B4
S1131490882760E070E0842B952BA62BB72B8093D4
S11314A0160190931701A0931801B0931901B09BF2
S11314B01BC04091840050918500C9010196092EFA
S11314C0000CAA0BBB0BDC019927882760E070E0B5
S11314D0842B952BA62BB72B809316019093170181
S11314E0A0931801B0931901E091D001F091D101BA
S11314F0309739F06DE070E08091380190913901B6
S113150009950E946104FF91EF91BF91AF919F9162
S11315108F917F916F915F914F913F912F910F9098
S11315200FBE0F901F9018951F920F920FB60F9237
S113153011242F933F934F935F936F937F938F93D4
S11315409F93AF93BF93EF93FF9320911401309136
S113155015014091840050918500C901032E000CAF
S1131560AA0BBB0BDC019927882760E070E0842B71
S1131570952BA62BB72B8093160190931701A0935C
S11315801801B0931901B09B1BC040918400509185
S11315908500C9010196092E000CAA0BBB0BDC01C6
S11315A09927882760E070E0842B952BA62BB72B16
S11315B08093160190931701A0931801B093190119
S11315C0E091D201F091D301309739F06EE070E0F0
S11315D080913A0190913B0109950E946104FF9129
S11315E0EF91BF91AF919F918F917F916F915F9197
S11315F04F913F912F910F900FBE0F901F90189510
S11316001F920F920FB60F9211242F933F934F9373
S11316105F936F937F938F939F93AF93BF93EF9356
S1131620FF93209114013091150140918400509151
S11316308500C901032E000CAA0BBB0BDC01992702
S1131640882760E070E0842B952BA62BB72B809322
S1131650160190931701A0931801B0931901B09B40
S11316601BC04091840050918500C9010196092E48
S1131670000CAA0BBB0BDC019927882760E070E003
S1131680842B952BA62BB72B8093160190931701CF
S1131690A0931801B0931901E091D401F091D50100
S11316A0309739F06FE070E080913C0190913D01FA
S11316B009950E946104FF91EF91BF91AF919F91B1
S11316C08F917F916F915F914F913F912F910F90E7
S11316D00FBE0F901F9018951F920F920FB60F9286
S11316E011242F933F934F935F936F937F938F9323
S11316F09F93AF93BF93EF93FF9320911401309185
S113170015014091840050918500C901032E000CFD
S1131710AA0BBB0BDC019927882760E070E0842BBF
S1131720952BA62BB72B8093160190931701A093AA
S11317301801B0931901B09B1BC0409184005091D3
S11317408500C9010196092E000CAA0BBB0BDC0114
S11317509927882760E070E0842B952BA62BB72B64
S11317608093160190931701A0931801B093190167
S1131770E091D601F091D701309739F060E170E043
S113178080913E0190913F0109950E946104FF916F
S1131790EF91BF91AF919F918F917F916F915F91E5
S11317A04F913F912F910F900FBE0F901F9018955E
S11317B01F920F920FB60F9211242F933F934F93C2
S11317C05F936F937F938F939F93AF93BF93EF93A5
S11317D0FF932091140130911501409184005091A0
S11317E08500C901032E000CAA0BBB0BDC01992751
S11317F0882760E070E0842B952BA62BB72B809371
S1131800160190931701A0931801B0931901B09B8E
S11318101BC04091840050918500C9010196092E96
S1131820000CAA0BBB0BDC019927882760E070E051
S1131830842B952BA62BB72B80931601909317011D
S1131840A0931801B0931901E091D801F091D90146
S1131850309739F061E170E080914001909141014D
S113186009950E946104FF91EF91BF91AF919F91FF
S11318708F917F916F915F914F913F912F910F9035
S11318800FBE0F901F9018951F920F920FB60F92D4
S113189011242F933F934F935F936F937F938F9371
S11318A09F93EF93FF9380911401909115010196FA
S11318B09093150180931401E0911A01F0911B019A
S11318C0309739F042815381648175818617970777
S11318D0A1F080916F008D7F80936F00FF91EF9155
S11318E09F918F917F916F915F914F913F912F9134
S11318F00F900FBE0F901F901895CA01209184007D
S113190030918500421B530B4130510551F09093A7
S113191089008093880080916F00826080936F00BB
S1131920DDCF80918400909185000196F0CF1F92C5
S11319300F920FB60F9211248F929F92AF92BF9283
S1131940CF92DF92EF92FF920F931F932F933F93C7
S11319504F935F936F937F938F939F93AF93BF93B3
S1131960CF93DF93EF93FF93E0901401F090150170
S11319708091840090918500B09998C047010F2C04
S1131980000CAA08BB08540199248824A0E0B0E004
S1131990882A992AAA2ABB2AC0911A01D0911B012C
S11319A080911C0190911D01209709F43FC04A8148
S11319B05B816C817D818A019B01081919092A09BF
S11319C03B0910161106120613060CF440C0D88009
S11319D0C9800097B9F10E811F8128853985FC01E2
S11319E046815781608571850417150726073707D7
S11319F04CF1DC010AC0468157816085718504176A
S1131A00150726073707DCF0DF01ED91FC911197EC
S1131A10309789F719821882CD93DC93382F292FB8
S1131A20CD2DDC2D832F922F209709F610921B01C8
S1131A3010921A0190931D0180931C0113C0F98325
S1131A40E883EACF998388833C2F2D2FE9CFD09365
S1131A501B01C0931A0190931D0180931C01E6168B
S1131A60F706D9F180916F008D7F80936F000E94FB
S1131A706104FF91EF91DF91CF91BF91AF919F915D
S1131A808F917F916F915F914F913F912F911F9112
S1131A900F91FF90EF90DF90CF90BF90AF909F9009
S1131AA08F900F900FBE0F901F9018952091840077
S1131AB03091850047018FEF881A980A092C000C91
S1131AC0AA08BB08D401992788274901A12CB12C65
S1131AD0882A992AAA2ABB2A5FCFCA0120918400A6
S1131AE030918500421B530B4130510551F09093C6
S1131AF089008093880080916F00826080936F00DA
S1131B00B6CF80918400909185000196F0CF3F92EA
S1131B104F925F926F927F928F929F92AF92BF92F9
S1131B20CF92DF92EF92FF920F931F93CF93DF93A5
S1131B30EFB7E0783E2EF894C0910601D0910701EA
S1131B40209709F452C1E881F981F0930701E093E9
S1131B5006011B870A87FD86EC86DF86CE86332046
S1131B6009F46FC0E0910001F09101010280F3815A
S1131B70E02DC280D380E480F580C60ED71EE81E17
S1131B80F91ECA82DB82EC82FD8212161306140649
S1131B9015060CF0F8C0DA01C9018C019D010C0D89
S1131BA01D1D2E1D3F1D0E831F832887398780919D
S1131BB01401909115016091840070918500B09991
S1131BC049C02C01092E000C66087708520199249B
S1131BD088242B01612C712C482859286A287B28D9
S1131BE0B701A601441955096609770914161506A3
S1131BF0160617060CF068C0A0911A01B0911B01DB
S1131C00109709F4DCC012960D911D912D913C9111
S1131C101597C016D106E206F3065CF4D0C04281E3
S1131C20538164817581C416D506E606F7064CF126
S1131C30DF01ED91FC911197309789F71982188291
S1131C4022C0C0901601D0901701E0901801F090C6
S1131C50190193CFE0918400F09185002C014FEF9E
S1131C60441A540A052C000C66087708B20155275B
S1131C7044272F01612C712C442A552A662A772A7D
S1131C80AFCFF983E883CD93DC938217930709F4EC
S1131C907FC080916F008D7F80936F00332009F0A7
S1131CA07894CE01DF91CF911F910F91FF90EF9027
S1131CB0DF90CF90BF90AF909F908F907F906F9068
S1131CC05F904F903F900895A0911C01B0911D0129
S1131CD0109709F483C01696CD90DD90ED90FC909A
S1131CE019970C151D052E053F0564F477C0C680B1
S1131CF0D780E084F1840C151D052E053F050CF4F6
S1131D005BC0DF01ED91FC911197309781F7198247
S1131D101882CD93DC93332021F2809104019091B9
S1131D200501009709F4BCCFE0910201F091030191
S1131D3020911C0130911D0102811381D901169655
S1131D404D915D916D917C911997D80116960D91E5
S1131D501D912D913C911997401B510B620B730BF4
S1131D6077FF9ECFDC012D913C91119730930501B3
S1131D7020930401ED93FC9390930301809302015B
S1131D800E9441048DCF8FEF9FEFAFEFBFE705CFE8
S1131D90C8014091840050918500041B150B01304B
S1131DA01105B1F0909389008093880080916F00B1
S1131DB0826080936F0072CFF983E883AACFB983DE
S1131DC0A883D0931B01C0931A01970186015DCFAC
S1131DD080918400909185000196E4CFB983A88313
S1131DE0D0931D01C0931C0196CF0E94A104CF92F1
S1131DF0DF92EF92FF920F931F93CF93DF93EC0147
S1131E007B016A011FB71078F894A881B9811097F3
S1131E1019F462C0A081B1811496ED91FC911597DB
S1131E203097C1F720910001309101012A173B0737
S1131E3009F44CC01123A1F18A819B81009719F008
S1131E40FC01158214823B832A83F901D583C48360
S1131E50CD010E944104E0910001F09101018281D1
S1131E609381892B09F441C0F983E8838A819B819A
S1131E70019709F07894B601CE01F7010995F82E7F
S1131E80092F8FB7F894198218828A819B81823036
S1131E909105A0F4112379F078948F2D902F02C02E
S1131EA08FEF9FEFDF91CF911F910F91FF90EF90F4
S1131EB0DF90CF9008958F2D902FF4CF1B821A823C
S1131EC0FC01158214820E944104E4CF112341F3E2
S1131ED078948FEF9FEFE6CF8091000190910101FC
S1131EE099838883112339F2C1CF789480E090E0FC
S1131EF0D9CFC0911C01D0911D01E0910001F09156
S1131F000101209709F46EC08881998190931D0185
S1131F1080931C01D383C28378944E855F856C853E
S1131F207D858A859B850E94F70E8FB7F8948091F2
S1131F3006019091070199838883D0930701C09388
S1131F400601E0900201F0900301F701A081B18144
S1131F5012968D919C911397C0911C01D0911D01F3
S1131F602097A9F0009749F24E815F8168857985B1
S1131F70FC010681178120853185401B510B620BC2
S1131F80730B14161506160617060CF0B6CFB0938D
S1131F900301A09302018091040190910501F701CE
S1131FA091838083F0920501E09204011496ED91EF
S1131FB0FC911597309741F0A081B1811496ED9171
S1131FC0FC9115973097C1F7CD010E944104C0914F
S1131FD01C01D0911D01E0910001F09101012097B5
S1131FE009F092CF0E94A1044231B8F42FB7F894BB
S1131FF050E0440F551FFA01E25EFE4F9183808347
S1132000FA01EA54FE4F7183608341E050E0FC0121
S11320105383428327FF01C0789408958C017B0188
S11320206A018FB7F8940E94D6037894E114F104FE
S113203041F020E030E0A90160E070E0CB010E94B3
S1132040870D8FB7F8940E946104789481E083BF70
S11320508895FDCF97FB072E16F4009407D077FDE3
S113206009D00E94441007FC05D03EF49095819558
S11320709F4F0895709561957F4F0895EE0FFF1F50
S11320800590F491E02D0994AA1BBB1B51E107C0F4
S1132090AA1FBB1FA617B70710F0A61BB70B881FF4
S11320A0991F5A95A9F780959095BC01CD01089583
S11320B0DC012D923D924D925D926D927D928D92B6
S11320C09D92AD92BD92CD92DD92ED92FD920D93D3
S11320D01D93CD93DD93FF91EF918DB78D938EB7C3
S11320E08D938FB78D93ED93FD938827992709944A
S11320F0DC01CB0181309105811D2D903D904D90E7
S11321005D906D907D908D909D90AD90BD90CD90A3
S1132110DD90ED90FD900D911D91CD91DD91ED91AE
S1132120FD910D90F894FEBF0FBEEDBFED91FD91B2
S10921300994F894FFCFAE
S1132136DA01DA014201F701000000001E00000086
S1072146010001008F
S9030000FC
