S01400004C61625F345F4430303033452E73726563C3
S11300000C9438000C94BC020C9428030C949403B4
S11300100C9400040C946C040C9455000C94A70AE2
S11300200C9455000C94540A0C94D8040C94440574
S11300300C94B0050C941C060C9488060C94F406DD
S11300400C9460070C94CC070C9438080C94A40806
S11300500C9410090C947C090C94E8097200BB0000
S1130060C400CD00D600DF00E800F100FA0003016F
S113007011241FBECFEFD4E0DEBFCDBF11E0A0E05E
S1130080B1E0E6E7F8E102C005900D92AE30B107A9
S1130090D9F724E0AEE0B1E001C01D92A136B20769
S11300A0E1F70E94FA010C94390C0C94000086E3E9
S11300B08093E50087E08093E6008FE08093E7007B
S11300C080EC8093E4008DE080938100089590E0BB
S11300D0FC01F097EA30F10508F04CC0E25DFF4FF7
S11300E00C94D00B81E090E025E030E045E050E056
S11300F0E1E0F0E06230710509F4C7C00CF48CC093
S11301006430710509F40BC10CF4D8C06530710575
S113011009F037C16091EE006F70E295F295F07FBF
S1130120FE27E07FFE27E62BE093EE006091F300CC
S11301306F7042955295507F5427407F5427462B29
S11301404093F3004091F8004F7022953295307F30
S11301503227207F3227242B2093F8002091FD00A2
S11301602F7082959295907F9827807F9827822B75
S11301708093FD00089580E090E021E030E041E0CC
S113018050E0E0E0F0E0B6CF81E090E02EE030E037
S113019041E050E0E1E0F0E0ADCF81E090E02BE021
S11301A030E041E050E0E1E0F0E0A4CF80E090E016
S11301B02BE030E045E050E0E0E0F0E09BCF81E070
S11301C090E02BE030E044E050E0E1E0F0E092CF5A
S11301D081E090E02FE030E044E050E0E1E0F0E046
S11301E089CF80E090E021E030E041E050E0E1E0C0
S11301F0F0E080CF81E090E02FE030E045E050E097
S1130200E1E0F0E077CF81E090E02BE030E045E002
S113021050E0E1E0F0E06ECF6115710509F498C09B
S11302206130710509F0AEC06091EC006F70E29529
S1130230F295F07FFE27E07FFE27E62BE093EC00AB
S11302406091F1006F7042955295507F5427407F22
S11302505427462B4093F1004091F6004F702295AD
S11302603295307F3227207F3227242B2093F600CB
S11302702091FB002F7082959295907F9827807F24
S11302809827822B8093FB0008956091ED00607F96
S1130290E62BE093ED006091F200607F462B4093E3
S11302A0F2004091F700407F242B2093F700209127
S11302B0FC00207F822B8093FC0008956091ED0068
S11302C06F70E295F295F07FFE27E07FFE27E62B24
S11302D0E093ED006091F2006F7042955295507F6B
S11302E05427407F5427462B4093F2004091F70057
S11302F04F7022953295307F3227207F3227242B6E
S11303002093F7002091FC002F7082959295907FA6
S11303109827807F9827822B8093FC000895609112
S1130320EE00607FE62BE093EE006091F300607FC7
S1130330462B4093F3004091F800407F242B2093F8
S1130340F8002091FD00207F822B8093FD0008950A
S11303506091EC00607FE62BE093EC006091F1008B
S1130360607F462B4093F1004091F600407F242BA0
S11303702093F6002091FB00207F822B8093FB00CA
S11303800895089508958F929F92AF92BF92CF924D
S1130390DF92EF92FF92CF93DF934B015C01EA016E
S11303A024E630E040E050E00E94B10B2AE0C22E87
S11303B0D12CE12CF12CA70196010E94B10BBE01B6
S11303C080E3820F0E9467002196C501B401A70152
S11303D096010E94B10B862FBE01805DDF91CF9103
S11303E0FF90EF90DF90CF90BF90AF909F908F9051
S11303F00C9467000F931F93CF93DF93CDB7DEB7B1
S11304002E970FB6F894DEBF0FBECDBF0E945700E3
S11304108E01085F1F4F87E0F80111928A95E9F772
S113042087E0E6E0F1E0DE01119601900D928A95F5
S1130430E1F7C8010E94580242E06AE372E0C80191
S11304400E94970B42E06AE372E0CE0101960E949B
S1130450970BCE0101960E943A0280E090E02E961E
S11304600FB6F894DEBF0FBECDBFDF91CF911F91C1
S11304700F910895FC0183B1618172816336710526
S11304807CF49081992361F086FD04C06F5F7F4FF7
S1130490728361831F9904C06150710972836183FF
S11304A045815681072E000C880B990B0C94C301CF
S11304B021E0FC0120830895CF93DF9300D0CDB7D2
S11304C0DEB79A8389838091000190910101069699
S11304D00E94F80B892B29F00F900F90DF91CF9198
S11304E0089589819A81909301018093000161E0CC
S11304F070E006960E94180C0F931F93CF93DF931E
S1130500E0911601F09117013097F1F08091040108
S1130510909105010097C1F0C0910201D0910301AF
S1130520AA81BB811097A9F04681578160857185A6
S113053016960D911D912D913C911997401B510BCD
S1130540620B730B77FD05C0DF91CF911F910F9163
S11305500895FC0120813181309305012093040129
S1130560D183C0839093030180930201DF91CF91E3
S11305701F910F910C945C021F920F920FB60F9271
S113058011242F933F934F935F936F937F938F9394
S11305909F93AF93BF93EF93FF9320910E013091FC
S11305A00F014091840050918500C901032E000C75
S11305B0AA0BBB0BDC019927882760E070E0842B31
S11305C0952BA62BB72B8093100190931101A09328
S11305D01201B0931301B09B1BC040918400509151
S11305E08500C9010196092E000CAA0BBB0BDC0186
S11305F09927882760E070E0842B952BA62BB72BD6
S11306008093100190931101A0931201B0931301F0
S1130610E091B001F091B101309739F060E070E001
S1130620809118019091190109950E947C02FF9113
S1130630EF91BF91AF919F918F917F916F915F9156
S11306404F913F912F910F900FBE0F901F901895CF
S11306501F920F920FB60F9211242F933F934F9333
S11306605F936F937F938F939F93AF93BF93EF9316
S1130670FF9320910E0130910F014091840050911D
S11306808500C901032E000CAA0BBB0BDC019927C2
S1130690882760E070E0842B952BA62BB72B8093E2
S11306A0100190931101A0931201B0931301B09B18
S11306B01BC04091840050918500C9010196092E08
S11306C0000CAA0BBB0BDC019927882760E070E0C3
S11306D0842B952BA62BB72B80931001909311019B
S11306E0A0931201B0931301E091B201F091B30110
S11306F0309739F061E070E080911A0190911B010C
S113070009950E947C02FF91EF91BF91AF919F9157
S11307108F917F916F915F914F913F912F910F90A6
S11307200FBE0F901F9018951F920F920FB60F9245
S113073011242F933F934F935F936F937F938F93E2
S11307409F93AF93BF93EF93FF9320910E0130914A
S11307500F014091840050918500C901032E000CC3
S1130760AA0BBB0BDC019927882760E070E0842B7F
S1130770952BA62BB72B8093100190931101A09376
S11307801201B0931301B09B1BC04091840050919F
S11307908500C9010196092E000CAA0BBB0BDC01D4
S11307A09927882760E070E0842B952BA62BB72B24
S11307B08093100190931101A0931201B09313013F
S11307C0E091B401F091B501309739F062E070E046
S11307D080911C0190911D0109950E947C02FF915A
S11307E0EF91BF91AF919F918F917F916F915F91A5
S11307F04F913F912F910F900FBE0F901F9018951E
S11308001F920F920FB60F9211242F933F934F9381
S11308105F936F937F938F939F93AF93BF93EF9364
S1130820FF9320910E0130910F014091840050916B
S11308308500C901032E000CAA0BBB0BDC01992710
S1130840882760E070E0842B952BA62BB72B809330
S1130850100190931101A0931201B0931301B09B66
S11308601BC04091840050918500C9010196092E56
S1130870000CAA0BBB0BDC019927882760E070E011
S1130880842B952BA62BB72B8093100190931101E9
S1130890A0931201B0931301E091B601F091B70156
S11308A0309739F063E070E080911E0190911F0150
S11308B009950E947C02FF91EF91BF91AF919F91A6
S11308C08F917F916F915F914F913F912F910F90F5
S11308D00FBE0F901F9018951F920F920FB60F9294
S11308E011242F933F934F935F936F937F938F9331
S11308F09F93AF93BF93EF93FF9320910E01309199
S11309000F014091840050918500C901032E000C11
S1130910AA0BBB0BDC019927882760E070E0842BCD
S1130920952BA62BB72B8093100190931101A093C4
S11309301201B0931301B09B1BC0409184005091ED
S11309408500C9010196092E000CAA0BBB0BDC0122
S11309509927882760E070E0842B952BA62BB72B72
S11309608093100190931101A0931201B09313018D
S1130970E091B801F091B901309739F064E070E08A
S1130980809120019091210109950E947C02FF91A0
S1130990EF91BF91AF919F918F917F916F915F91F3
S11309A04F913F912F910F900FBE0F901F9018956C
S11309B01F920F920FB60F9211242F933F934F93D0
S11309C05F936F937F938F939F93AF93BF93EF93B3
S11309D0FF9320910E0130910F01409184005091BA
S11309E08500C901032E000CAA0BBB0BDC0199275F
S11309F0882760E070E0842B952BA62BB72B80937F
S1130A00100190931101A0931201B0931301B09BB4
S1130A101BC04091840050918500C9010196092EA4
S1130A20000CAA0BBB0BDC019927882760E070E05F
S1130A30842B952BA62BB72B809310019093110137
S1130A40A0931201B0931301E091BA01F091BB019C
S1130A50309739F065E070E0809122019091230194
S1130A6009950E947C02FF91EF91BF91AF919F91F4
S1130A708F917F916F915F914F913F912F910F9043
S1130A800FBE0F901F9018951F920F920FB60F92E2
S1130A9011242F933F934F935F936F937F938F937F
S1130AA09F93AF93BF93EF93FF9320910E013091E7
S1130AB00F014091840050918500C901032E000C60
S1130AC0AA0BBB0BDC019927882760E070E0842B1C
S1130AD0952BA62BB72B8093100190931101A09313
S1130AE01201B0931301B09B1BC04091840050913C
S1130AF08500C9010196092E000CAA0BBB0BDC0171
S1130B009927882760E070E0842B952BA62BB72BC0
S1130B108093100190931101A0931201B0931301DB
S1130B20E091BC01F091BD01309739F066E070E0CE
S1130B30809124019091250109950E947C02FF91E6
S1130B40EF91BF91AF919F918F917F916F915F9141
S1130B504F913F912F910F900FBE0F901F901895BA
S1130B601F920F920FB60F9211242F933F934F931E
S1130B705F936F937F938F939F93AF93BF93EF9301
S1130B80FF9320910E0130910F0140918400509108
S1130B908500C901032E000CAA0BBB0BDC019927AD
S1130BA0882760E070E0842B952BA62BB72B8093CD
S1130BB0100190931101A0931201B0931301B09B03
S1130BC01BC04091840050918500C9010196092EF3
S1130BD0000CAA0BBB0BDC019927882760E070E0AE
S1130BE0842B952BA62BB72B809310019093110186
S1130BF0A0931201B0931301E091BE01F091BF01E3
S1130C00309739F067E070E08091260190912701D8
S1130C1009950E947C02FF91EF91BF91AF919F9142
S1130C208F917F916F915F914F913F912F910F9091
S1130C300FBE0F901F9018951F920F920FB60F9230
S1130C4011242F933F934F935F936F937F938F93CD
S1130C509F93AF93BF93EF93FF9320910E01309135
S1130C600F014091840050918500C901032E000CAE
S1130C70AA0BBB0BDC019927882760E070E0842B6A
S1130C80952BA62BB72B8093100190931101A09361
S1130C901201B0931301B09B1BC04091840050918A
S1130CA08500C9010196092E000CAA0BBB0BDC01BF
S1130CB09927882760E070E0842B952BA62BB72B0F
S1130CC08093100190931101A0931201B09313012A
S1130CD0E091C001F091C101309739F068E070E013
S1130CE0809128019091290109950E947C02FF912D
S1130CF0EF91BF91AF919F918F917F916F915F9190
S1130D004F913F912F910F900FBE0F901F90189508
S1130D101F920F920FB60F9211242F933F934F936C
S1130D205F936F937F938F939F93AF93BF93EF934F
S1130D30FF9320910E0130910F0140918400509156
S1130D408500C901032E000CAA0BBB0BDC019927FB
S1130D50882760E070E0842B952BA62BB72B80931B
S1130D60100190931101A0931201B0931301B09B51
S1130D701BC04091840050918500C9010196092E41
S1130D80000CAA0BBB0BDC019927882760E070E0FC
S1130D90842B952BA62BB72B8093100190931101D4
S1130DA0A0931201B0931301E091C201F091C30129
S1130DB0309739F069E070E080912A0190912B011D
S1130DC009950E947C02FF91EF91BF91AF919F9191
S1130DD08F917F916F915F914F913F912F910F90E0
S1130DE00FBE0F901F9018951F920F920FB60F927F
S1130DF011242F933F934F935F936F937F938F931C
S1130E009F93AF93BF93EF93FF9320910E01309183
S1130E100F014091840050918500C901032E000CFC
S1130E20AA0BBB0BDC019927882760E070E0842BB8
S1130E30952BA62BB72B8093100190931101A093AF
S1130E401201B0931301B09B1BC0409184005091D8
S1130E508500C9010196092E000CAA0BBB0BDC010D
S1130E609927882760E070E0842B952BA62BB72B5D
S1130E708093100190931101A0931201B093130178
S1130E80E091C401F091C501309739F06AE070E057
S1130E9080912C0190912D0109950E947C02FF9173
S1130EA0EF91BF91AF919F918F917F916F915F91DE
S1130EB04F913F912F910F900FBE0F901F90189557
S1130EC01F920F920FB60F9211242F933F934F93BB
S1130ED05F936F937F938F939F93AF93BF93EF939E
S1130EE0FF9320910E0130910F01409184005091A5
S1130EF08500C901032E000CAA0BBB0BDC0199274A
S1130F00882760E070E0842B952BA62BB72B809369
S1130F10100190931101A0931201B0931301B09B9F
S1130F201BC04091840050918500C9010196092E8F
S1130F30000CAA0BBB0BDC019927882760E070E04A
S1130F40842B952BA62BB72B809310019093110122
S1130F50A0931201B0931301E091C601F091C7016F
S1130F60309739F06BE070E080912E0190912F0161
S1130F7009950E947C02FF91EF91BF91AF919F91DF
S1130F808F917F916F915F914F913F912F910F902E
S1130F900FBE0F901F9018951F920F920FB60F92CD
S1130FA011242F933F934F935F936F937F938F936A
S1130FB09F93AF93BF93EF93FF9320910E013091D2
S1130FC00F014091840050918500C901032E000C4B
S1130FD0AA0BBB0BDC019927882760E070E0842B07
S1130FE0952BA62BB72B8093100190931101A093FE
S1130FF01201B0931301B09B1BC040918400509127
S11310008500C9010196092E000CAA0BBB0BDC015B
S11310109927882760E070E0842B952BA62BB72BAB
S11310208093100190931101A0931201B0931301C6
S1131030E091C801F091C901309739F06CE070E09B
S1131040809130019091310109950E947C02FF91B9
S1131050EF91BF91AF919F918F917F916F915F912C
S11310604F913F912F910F900FBE0F901F901895A5
S11310701F920F920FB60F9211242F933F934F9309
S11310805F936F937F938F939F93AF93BF93EF93EC
S1131090FF9320910E0130910F01409184005091F3
S11310A08500C901032E000CAA0BBB0BDC01992798
S11310B0882760E070E0842B952BA62BB72B8093B8
S11310C0100190931101A0931201B0931301B09BEE
S11310D01BC04091840050918500C9010196092EDE
S11310E0000CAA0BBB0BDC019927882760E070E099
S11310F0842B952BA62BB72B809310019093110171
S1131100A0931201B0931301E091CA01F091CB01B5
S1131110309739F06DE070E08091320190913301A5
S113112009950E947C02FF91EF91BF91AF919F912D
S11311308F917F916F915F914F913F912F910F907C
S11311400FBE0F901F9018951F920F920FB60F921B
S113115011242F933F934F935F936F937F938F93B8
S11311609F93AF93BF93EF93FF9320910E01309120
S11311700F014091840050918500C901032E000C99
S1131180AA0BBB0BDC019927882760E070E0842B55
S1131190952BA62BB72B8093100190931101A0934C
S11311A01201B0931301B09B1BC040918400509175
S11311B08500C9010196092E000CAA0BBB0BDC01AA
S11311C09927882760E070E0842B952BA62BB72BFA
S11311D08093100190931101A0931201B093130115
S11311E0E091CC01F091CD01309739F06EE070E0E0
S11311F0809134019091350109950E947C02FF9100
S1131200EF91BF91AF919F918F917F916F915F917A
S11312104F913F912F910F900FBE0F901F901895F3
S11312201F920F920FB60F9211242F933F934F9357
S11312305F936F937F938F939F93AF93BF93EF933A
S1131240FF9320910E0130910F0140918400509141
S11312508500C901032E000CAA0BBB0BDC019927E6
S1131260882760E070E0842B952BA62BB72B809306
S1131270100190931101A0931201B0931301B09B3C
S11312801BC04091840050918500C9010196092E2C
S1131290000CAA0BBB0BDC019927882760E070E0E7
S11312A0842B952BA62BB72B8093100190931101BF
S11312B0A0931201B0931301E091CE01F091CF01FC
S11312C0309739F06FE070E08091360190913701EA
S11312D009950E947C02FF91EF91BF91AF919F917C
S11312E08F917F916F915F914F913F912F910F90CB
S11312F00FBE0F901F9018951F920F920FB60F926A
S113130011242F933F934F935F936F937F938F9306
S11313109F93AF93BF93EF93FF9320910E0130916E
S11313200F014091840050918500C901032E000CE7
S1131330AA0BBB0BDC019927882760E070E0842BA3
S1131340952BA62BB72B8093100190931101A0939A
S11313501201B0931301B09B1BC0409184005091C3
S11313608500C9010196092E000CAA0BBB0BDC01F8
S11313709927882760E070E0842B952BA62BB72B48
S11313808093100190931101A0931201B093130163
S1131390E091D001F091D101309739F060E170E033
S11313A0809138019091390109950E947C02FF9146
S11313B0EF91BF91AF919F918F917F916F915F91C9
S11313C04F913F912F910F900FBE0F901F90189542
S11313D01F920F920FB60F9211242F933F934F93A6
S11313E05F936F937F938F939F93AF93BF93EF9389
S11313F0FF9320910E0130910F0140918400509190
S11314008500C901032E000CAA0BBB0BDC01992734
S1131410882760E070E0842B952BA62BB72B809354
S1131420100190931101A0931201B0931301B09B8A
S11314301BC04091840050918500C9010196092E7A
S1131440000CAA0BBB0BDC019927882760E070E035
S1131450842B952BA62BB72B80931001909311010D
S1131460A0931201B0931301E091D201F091D30142
S1131470309739F061E170E080913A0190913B013D
S113148009950E947C02FF91EF91BF91AF919F91CA
S11314908F917F916F915F914F913F912F910F9019
S11314A00FBE0F901F9018951F920F920FB60F92B8
S11314B011242F933F934F935F936F937F938F9355
S11314C09F93EF93FF9380910E0190910F010196EA
S11314D090930F0180930E01E0911401F091150196
S11314E0309739F04281538164817581861797075B
S11314F0A1F080916F008D7F80936F00FF91EF9139
S11315009F918F917F916F915F914F913F912F9117
S11315100F900FBE0F901F901895CA012091840060
S113152030918500421B530B4130510551F090938B
S113153089008093880080916F00826080936F009F
S1131540DDCF80918400909185000196F0CF1F92A9
S11315500F920FB60F9211248F929F92AF92BF9267
S1131560CF92DF92EF92FF920F931F932F933F93AB
S11315704F935F936F937F938F939F93AF93BF9397
S1131580CF93DF93EF93FF93E0900E01F0900F0160
S11315908091840090918500B09998C047010F2CE8
S11315A0000CAA08BB08540199248824A0E0B0E0E8
S11315B0882A992AAA2ABB2AC0911401D09115011C
S11315C08091160190911701209709F43FC04A8138
S11315D05B816C817D818A019B01081919092A09A3
S11315E03B0910161106120613060CF440C0D880ED
S11315F0C9800097B9F10E811F8128853985FC01C6
S113160046815781608571850417150726073707BA
S11316104CF1DC010AC0468157816085718504174D
S1131620150726073707DCF0DF01ED91FC911197D0
S1131630309789F719821882CD93DC93382F292F9C
S1131640CD2DDC2D832F922F209709F610921501B2
S113165010921401909317018093160113C0F9831B
S1131660E883EACF998388833C2F2D2FE9CFD09349
S11316701501C09314019093170180931601E61687
S1131680F706D9F180916F008D7F80936F000E94DF
S11316907C02FF91EF91DF91CF91BF91AF919F9128
S11316A08F917F916F915F914F913F912F911F91F6
S11316B00F91FF90EF90DF90CF90BF90AF909F90ED
S11316C08F900F900FBE0F901F901895209184005B
S11316D03091850047018FEF881A980A092C000C75
S11316E0AA08BB08D401992788274901A12CB12C49
S11316F0882A992AAA2ABB2A5FCFCA01209184008A
S113170030918500421B530B4130510551F09093A9
S113171089008093880080916F00826080936F00BD
S1131720B6CF80918400909185000196F0CF42312C
S1131730B8F42FB7F89450E0440F551FFA01E85E4F
S1131740FE4F91838083FA01E055FE4F71836083DD
S113175041E050E0FC015383428327FF01C07894A9
S11317600895052E97FB1EF400940E94C80B57FDA4
S113177007D00E94D60B07FC03D04EF40C94C80B80
S113178050954095309521953F4F4F4F5F4F0895A9
S113179090958095709561957F4F8F4F9F4F0895D9
S11317A0EE0FFF1F0590F491E02D0994A1E21A2E8B
S11317B0AA1BBB1BFD010DC0AA1FBB1FEE1FFF1FF1
S11317C0A217B307E407F50720F0A21BB30BE40B41
S11317D0F50B661F771F881F991F1A9469F7609588
S11317E07095809590959B01AC01BD01CF01089542
S11317F0DC012D923D924D925D926D927D928D927F
S11318009D92AD92BD92CD92DD92ED92FD920D939B
S11318101D93CD93DD93FF91EF918DB78D938EB78B
S11318208D938FB78D93ED93FD9388279927099412
S1131830DC01CB0181309105811D2D903D904D90AF
S11318405D906D907D908D909D90AD90BD90CD906C
S1131850DD90ED90FD900D911D91CD91DD91ED9177
S1131860FD910D90F894FEBF0FBEEDBFED91FD917B
S10918700994F894FFCF77
S1111876D401D4013C01000A0000000400006B
S9030000FC
