S01400004C61625F345F4430303033452E73726563C3
S11300000C9438000C94B4030C9420040C948C04C9
S11300100C94F8040C9464050C9455000C949F0BF8
S11300200C9455000C944C0B0C94D0050C943C0689
S11300300C94A8060C9414070C9480070C94EC07F9
S11300400C9458080C94C4080C9430090C949C0922
S11300500C94080A0C94740A0C94E00A6300B4002B
S1130060BD00C600CF00D800E100EA00F300FC00A8
S113007011241FBECFEFD4E0DEBFCDBF11E0A0E05E
S1130080B1E0E8E7FFE102C005900D92A231B107AB
S1130090D9F724E0A2E1B1E001C01D92A536B20770
S11300A0E1F70E947D020C94BA0F0C94000078943E
S11300B090E0FC01F097EA30F10508F054C0E25DED
S11300C0FF4F0C94510F21E030E045E050E0E5E0B3
S11300D0F0E081E090E06230710509F43AC10CF47B
S11300E094C06430710509F4C9C00CF401C16530D1
S11300F07105C1F56091EE006F766093EE0060913A
S1130100EE006F707091EE0082959295907F982723
S1130110807F9827862B872B8093EE008091F300B5
S11301208F70E295F295F07FFE27E07FFE27E82BA3
S1130130E093F3008091F8008F7042955295507FC0
S11301405427407F5427482B4093F8008091FD00AA
S11301508F7022953295307F3227207F3227282BCB
S11301602093FD00F894089520E030E041E050E051
S1130170E1E0F0E080E090E0AECF21E030E04EE05E
S113018050E0E1E0F0E081E090E0A5CF21E030E054
S11301904BE050E0E1E0F0E081E090E09CCF20E033
S11301A030E04BE050E0E5E0F0E080E090E093CF19
S11301B021E030E04BE050E0E4E0F0E081E090E06A
S11301C08ACF21E030E04FE050E0E4E0F0E081E06D
S11301D090E081CF20E030E041E050E0E1E0F0E069
S11301E081E090E078CF21E030E04FE050E0E5E0BE
S11301F0F0E081E090E06FCF21E030E04BE050E0B0
S1130200E5E0F0E081E090E066CF6115710509F466
S113021056C06130710509F0A5CF6091EC006F7094
S113022082959295907F9827807F9827862B80933C
S1130230EC008091F1008F70E295F295F07FFE273B
S1130240E07FFE27E82BE093F1008091F6008F70A9
S113025042955295507F5427407F5427482B409312
S1130260F6008091FB008F7022953295307F322703
S1130270207F3227282B2093FB0074CF6091EE005F
S1130280667F6093EE006091EE00607F7091EE00F7
S1130290862B872B8093EE008091F300807FE82BE0
S11302A0E093F3008091F800807F482B4093F8009E
S11302B08091FD00807F282B2093FD0053CF609117
S11302C0EC00607F862B8093EC008091F100807FAE
S11302D0E82BE093F1008091F600807F482B409357
S11302E0F6008091FB00807F282B2093FB003ACFFF
S11302F06091ED006F7082959295907F9827807F32
S11303009827862B8093ED008091F2008F70E29500
S1130310F295F07FFE27E07FFE27E82BE093F200C2
S11303208091F7008F7042955295507F5427407FFB
S11303305427482B4093F7008091FC008F7022953E
S11303403295307F3227207F3227282B2093FC00E0
S113035009CF6091ED00607F862B8093ED00809142
S1130360F200807FE82BE093F2008091F700807F19
S1130370482B4093F7008091FC00807F282B20932A
S1130380FC00F0CEEF92FF921F93CF93DF93CDB793
S1130390DEB72A970FB6F894DEBF0FBECDBF7C013F
S11303A013B1107442E050E06BE070E080E090E044
S11303B00E944602F701808D81111AC08AE03496AA
S11303C0DE01119601900D928A95E1F7CE01019616
S11303D0103491F00E94D3022A960FB6F894DEBF2F
S11303E00FBECDBFDF91CF911F91FF90EF90089585
S11303F08AE0F7013E96E4CF0E94C802EDCFCF9386
S1130400DF93EC01888D882301F18091EE00897FD0
S11304108093EE008091EE0080668093EE00688504
S11304207985072E000C880B990B40E050E00E9460
S113043046026A897B89072E000C880B990B44E0DD
S113044050E0DF91CF910C9446028091EE008F79B9
S11304508093EE008091EE0086608093EE00DFCF03
S113046086E38093E50087E08093E6008FE0809345
S1130470E70090EC9093E4008DE0809381008DB3CD
S1130480806C8DBB95B914B815BE08958F929F9258
S1130490AF92BF92CF92DF92EF92FF92CF93DF930E
S11304A04B015C01EA0124E630E040E050E00E94A8
S11304B0320F2AE0C22ED12CE12CF12CA701960197
S11304C00E94320FBE0180E3820F0E9457002196E2
S11304D0C501B401A70196010E94320F862FBE0107
S11304E0805DDF91CF91FF90EF90DF90CF90BF9030
S11304F0AF909F908F900C945700CF93DF93CDB71C
S1130500DEB7AD970FB6F894DEBF0FBECDBF0E9425
S113051030029E012C5D3F4F8AE0F90111928A95C9
S1130520E9F78AE0E8E0F1E0DE015A9601900D92E5
S11305308A95E1F71A8219821C821B828AE0F901EA
S1130540DE01159601900D928A95E1F78AE0FE018D
S11305507A96DE011F9601900D928A95E1F7198E25
S113056042E062EC71E0CE0101960E94FC0E40E094
S113057050E06FEF71E0CE0101960E94160FAD9628
S11305800FB6F894DEBF0FBECDBFDF91CF910895B3
S1130590FC01248135811216130624F421503109FB
S11305A0358324830895FC01248135812336310564
S11305B024F42F5F3F4F358324830895CF93DF9333
S11305C000D000D0CDB7DEB785E092E025EE32E072
S11305D0FC01709791838083409682179307C1F73B
S11305E01092D6021092D502E0E4F1E08DE591E09C
S11305F0918380838AE791E0968F858FA7E9B1E0A4
S1130600B3AFA2AF1D921C92FA83E983E1E4F3E055
S1130610FC83EB8389819A8106960E94790F8B81F2
S11306209C81E981FA81978B868B918F808F81E8F9
S11306309EE0948F838F158214827D96FA83E983DA
S1130640EB81FC81E05AFF4FFC83EB8389819A8123
S1130650845B9140F9F6E8EDF1E011821082158295
S1130660148213821282E1E6F0E080E88083108233
S1130670109285001092840084E08093810081E0D0
S113068080936F000F900F900F900F90DF91CF9198
S11306900895CF93DF9300D0CDB7DEB79A838983D3
S11306A0809100019091010106960E94790F892B97
S11306B029F00F900F90DF91CF91089589819A814D
S11306C0909301018093000161E070E006960E941E
S11306D0990F0F931F93CF93DF93E0911A01F09139
S11306E01B013097F1F0809104019091050100976E
S11306F0C1F0C0910201D0910301AA81BB8110977E
S1130700A9F0468157816085718516960D911D91DA
S11307102D913C911997401B510B620B730B77FD84
S113072005C0DF91CF911F910F910895FC012081A5
S113073031813093050120930401D183C0839093C8
S1130740030180930201DF91CF911F910F910C94CB
S113075049038FEF8093EC008093ED008093EE00CB
S113076081E083BF8895FDCF1F920F920FB60F9241
S113077011242F933F934F935F936F937F938F93A2
S11307809F93AF93BF93EF93FF9320911201309106
S113079013014091840050918500C901032E000C7F
S11307A0AA0BBB0BDC019927882760E070E0842B3F
S11307B0952BA62BB72B8093140190931501A0932E
S11307C01601B0931701B09B1BC040918400509157
S11307D08500C9010196092E000CAA0BBB0BDC0194
S11307E09927882760E070E0842B952BA62BB72BE4
S11307F08093140190931501A0931601B0931701EF
S1130800E091B401F091B501309739F060E070E007
S113081080911C0190911D0109950E946903FF912B
S1130820EF91BF91AF919F918F917F916F915F9164
S11308304F913F912F910F900FBE0F901F901895DD
S11308401F920F920FB60F9211242F933F934F9341
S11308505F936F937F938F939F93AF93BF93EF9324
S1130860FF93209112013091130140918400509123
S11308708500C901032E000CAA0BBB0BDC019927D0
S1130880882760E070E0842B952BA62BB72B8093F0
S1130890140190931501A0931601B0931701B09B16
S11308A01BC04091840050918500C9010196092E16
S11308B0000CAA0BBB0BDC019927882760E070E0D1
S11308C0842B952BA62BB72B8093140190931501A1
S11308D0A0931601B0931701E091B601F091B7010E
S11308E0309739F061E070E080911E0190911F0112
S11308F009950E946903FF91EF91BF91AF919F9178
S11309008F917F916F915F914F913F912F910F90B4
S11309100FBE0F901F9018951F920F920FB60F9253
S113092011242F933F934F935F936F937F938F93F0
S11309309F93AF93BF93EF93FF9320911201309154
S113094013014091840050918500C901032E000CCD
S1130950AA0BBB0BDC019927882760E070E0842B8D
S1130960952BA62BB72B8093140190931501A0937C
S11309701601B0931701B09B1BC0409184005091A5
S11309808500C9010196092E000CAA0BBB0BDC01E2
S11309909927882760E070E0842B952BA62BB72B32
S11309A08093140190931501A0931601B09317013D
S11309B0E091B801F091B901309739F062E070E04C
S11309C0809120019091210109950E946903FF9172
S11309D0EF91BF91AF919F918F917F916F915F91B3
S11309E04F913F912F910F900FBE0F901F9018952C
S11309F01F920F920FB60F9211242F933F934F9390
S1130A005F936F937F938F939F93AF93BF93EF9372
S1130A10FF93209112013091130140918400509171
S1130A208500C901032E000CAA0BBB0BDC0199271E
S1130A30882760E070E0842B952BA62BB72B80933E
S1130A40140190931501A0931601B0931701B09B64
S1130A501BC04091840050918500C9010196092E64
S1130A60000CAA0BBB0BDC019927882760E070E01F
S1130A70842B952BA62BB72B8093140190931501EF
S1130A80A0931601B0931701E091BA01F091BB0154
S1130A90309739F063E070E0809122019091230156
S1130AA009950E946903FF91EF91BF91AF919F91C6
S1130AB08F917F916F915F914F913F912F910F9003
S1130AC00FBE0F901F9018951F920F920FB60F92A2
S1130AD011242F933F934F935F936F937F938F933F
S1130AE09F93AF93BF93EF93FF93209112013091A3
S1130AF013014091840050918500C901032E000C1C
S1130B00AA0BBB0BDC019927882760E070E0842BDB
S1130B10952BA62BB72B8093140190931501A093CA
S1130B201601B0931701B09B1BC0409184005091F3
S1130B308500C9010196092E000CAA0BBB0BDC0130
S1130B409927882760E070E0842B952BA62BB72B80
S1130B508093140190931501A0931601B09317018B
S1130B60E091BC01F091BD01309739F064E070E090
S1130B70809124019091250109950E946903FF91B8
S1130B80EF91BF91AF919F918F917F916F915F9101
S1130B904F913F912F910F900FBE0F901F9018957A
S1130BA01F920F920FB60F9211242F933F934F93DE
S1130BB05F936F937F938F939F93AF93BF93EF93C1
S1130BC0FF932091120130911301409184005091C0
S1130BD08500C901032E000CAA0BBB0BDC0199276D
S1130BE0882760E070E0842B952BA62BB72B80938D
S1130BF0140190931501A0931601B0931701B09BB3
S1130C001BC04091840050918500C9010196092EB2
S1130C10000CAA0BBB0BDC019927882760E070E06D
S1130C20842B952BA62BB72B80931401909315013D
S1130C30A0931601B0931701E091BE01F091BF019A
S1130C40309739F065E070E080912601909127019A
S1130C5009950E946903FF91EF91BF91AF919F9114
S1130C608F917F916F915F914F913F912F910F9051
S1130C700FBE0F901F9018951F920F920FB60F92F0
S1130C8011242F933F934F935F936F937F938F938D
S1130C909F93AF93BF93EF93FF93209112013091F1
S1130CA013014091840050918500C901032E000C6A
S1130CB0AA0BBB0BDC019927882760E070E0842B2A
S1130CC0952BA62BB72B8093140190931501A09319
S1130CD01601B0931701B09B1BC040918400509142
S1130CE08500C9010196092E000CAA0BBB0BDC017F
S1130CF09927882760E070E0842B952BA62BB72BCF
S1130D008093140190931501A0931601B0931701D9
S1130D10E091C001F091C101309739F066E070E0D4
S1130D20809128019091290109950E946903FF91FE
S1130D30EF91BF91AF919F918F917F916F915F914F
S1130D404F913F912F910F900FBE0F901F901895C8
S1130D501F920F920FB60F9211242F933F934F932C
S1130D605F936F937F938F939F93AF93BF93EF930F
S1130D70FF9320911201309113014091840050910E
S1130D808500C901032E000CAA0BBB0BDC019927BB
S1130D90882760E070E0842B952BA62BB72B8093DB
S1130DA0140190931501A0931601B0931701B09B01
S1130DB01BC04091840050918500C9010196092E01
S1130DC0000CAA0BBB0BDC019927882760E070E0BC
S1130DD0842B952BA62BB72B80931401909315018C
S1130DE0A0931601B0931701E091C201F091C301E1
S1130DF0309739F067E070E080912A0190912B01DF
S1130E0009950E946903FF91EF91BF91AF919F9162
S1130E108F917F916F915F914F913F912F910F909F
S1130E200FBE0F901F9018951F920F920FB60F923E
S1130E3011242F933F934F935F936F937F938F93DB
S1130E409F93AF93BF93EF93FF932091120130913F
S1130E5013014091840050918500C901032E000CB8
S1130E60AA0BBB0BDC019927882760E070E0842B78
S1130E70952BA62BB72B8093140190931501A09367
S1130E801601B0931701B09B1BC040918400509190
S1130E908500C9010196092E000CAA0BBB0BDC01CD
S1130EA09927882760E070E0842B952BA62BB72B1D
S1130EB08093140190931501A0931601B093170128
S1130EC0E091C401F091C501309739F068E070E019
S1130ED080912C0190912D0109950E946903FF9145
S1130EE0EF91BF91AF919F918F917F916F915F919E
S1130EF04F913F912F910F900FBE0F901F90189517
S1130F001F920F920FB60F9211242F933F934F937A
S1130F105F936F937F938F939F93AF93BF93EF935D
S1130F20FF9320911201309113014091840050915C
S1130F308500C901032E000CAA0BBB0BDC01992709
S1130F40882760E070E0842B952BA62BB72B809329
S1130F50140190931501A0931601B0931701B09B4F
S1130F601BC04091840050918500C9010196092E4F
S1130F70000CAA0BBB0BDC019927882760E070E00A
S1130F80842B952BA62BB72B8093140190931501DA
S1130F90A0931601B0931701E091C601F091C70127
S1130FA0309739F069E070E080912E0190912F0123
S1130FB009950E946903FF91EF91BF91AF919F91B1
S1130FC08F917F916F915F914F913F912F910F90EE
S1130FD00FBE0F901F9018951F920F920FB60F928D
S1130FE011242F933F934F935F936F937F938F932A
S1130FF09F93AF93BF93EF93FF932091120130918E
S113100013014091840050918500C901032E000C06
S1131010AA0BBB0BDC019927882760E070E0842BC6
S1131020952BA62BB72B8093140190931501A093B5
S11310301601B0931701B09B1BC0409184005091DE
S11310408500C9010196092E000CAA0BBB0BDC011B
S11310509927882760E070E0842B952BA62BB72B6B
S11310608093140190931501A0931601B093170176
S1131070E091C801F091C901309739F06AE070E05D
S1131080809130019091310109950E946903FF918B
S1131090EF91BF91AF919F918F917F916F915F91EC
S11310A04F913F912F910F900FBE0F901F90189565
S11310B01F920F920FB60F9211242F933F934F93C9
S11310C05F936F937F938F939F93AF93BF93EF93AC
S11310D0FF932091120130911301409184005091AB
S11310E08500C901032E000CAA0BBB0BDC01992758
S11310F0882760E070E0842B952BA62BB72B809378
S1131100140190931501A0931601B0931701B09B9D
S11311101BC04091840050918500C9010196092E9D
S1131120000CAA0BBB0BDC019927882760E070E058
S1131130842B952BA62BB72B809314019093150128
S1131140A0931601B0931701E091CA01F091CB016D
S1131150309739F06BE070E0809132019091330167
S113116009950E946903FF91EF91BF91AF919F91FF
S11311708F917F916F915F914F913F912F910F903C
S11311800FBE0F901F9018951F920F920FB60F92DB
S113119011242F933F934F935F936F937F938F9378
S11311A09F93AF93BF93EF93FF93209112013091DC
S11311B013014091840050918500C901032E000C55
S11311C0AA0BBB0BDC019927882760E070E0842B15
S11311D0952BA62BB72B8093140190931501A09304
S11311E01601B0931701B09B1BC04091840050912D
S11311F08500C9010196092E000CAA0BBB0BDC016A
S11312009927882760E070E0842B952BA62BB72BB9
S11312108093140190931501A0931601B0931701C4
S1131220E091CC01F091CD01309739F06CE070E0A1
S1131230809134019091350109950E946903FF91D1
S1131240EF91BF91AF919F918F917F916F915F913A
S11312504F913F912F910F900FBE0F901F901895B3
S11312601F920F920FB60F9211242F933F934F9317
S11312705F936F937F938F939F93AF93BF93EF93FA
S1131280FF932091120130911301409184005091F9
S11312908500C901032E000CAA0BBB0BDC019927A6
S11312A0882760E070E0842B952BA62BB72B8093C6
S11312B0140190931501A0931601B0931701B09BEC
S11312C01BC04091840050918500C9010196092EEC
S11312D0000CAA0BBB0BDC019927882760E070E0A7
S11312E0842B952BA62BB72B809314019093150177
S11312F0A0931601B0931701E091CE01F091CF01B4
S1131300309739F06DE070E08091360190913701AB
S113131009950E946903FF91EF91BF91AF919F914D
S11313208F917F916F915F914F913F912F910F908A
S11313300FBE0F901F9018951F920F920FB60F9229
S113134011242F933F934F935F936F937F938F93C6
S11313509F93AF93BF93EF93FF932091120130912A
S113136013014091840050918500C901032E000CA3
S1131370AA0BBB0BDC019927882760E070E0842B63
S1131380952BA62BB72B8093140190931501A09352
S11313901601B0931701B09B1BC04091840050917B
S11313A08500C9010196092E000CAA0BBB0BDC01B8
S11313B09927882760E070E0842B952BA62BB72B08
S11313C08093140190931501A0931601B093170113
S11313D0E091D001F091D101309739F06EE070E0E6
S11313E0809138019091390109950E946903FF9118
S11313F0EF91BF91AF919F918F917F916F915F9189
S11314004F913F912F910F900FBE0F901F90189501
S11314101F920F920FB60F9211242F933F934F9365
S11314205F936F937F938F939F93AF93BF93EF9348
S1131430FF93209112013091130140918400509147
S11314408500C901032E000CAA0BBB0BDC019927F4
S1131450882760E070E0842B952BA62BB72B809314
S1131460140190931501A0931601B0931701B09B3A
S11314701BC04091840050918500C9010196092E3A
S1131480000CAA0BBB0BDC019927882760E070E0F5
S1131490842B952BA62BB72B8093140190931501C5
S11314A0A0931601B0931701E091D201F091D301FA
S11314B0309739F06FE070E080913A0190913B01F0
S11314C009950E946903FF91EF91BF91AF919F919C
S11314D08F917F916F915F914F913F912F910F90D9
S11314E00FBE0F901F9018951F920F920FB60F9278
S11314F011242F933F934F935F936F937F938F9315
S11315009F93AF93BF93EF93FF9320911201309178
S113151013014091840050918500C901032E000CF1
S1131520AA0BBB0BDC019927882760E070E0842BB1
S1131530952BA62BB72B8093140190931501A093A0
S11315401601B0931701B09B1BC0409184005091C9
S11315508500C9010196092E000CAA0BBB0BDC0106
S11315609927882760E070E0842B952BA62BB72B56
S11315708093140190931501A0931601B093170161
S1131580E091D401F091D501309739F060E170E039
S113159080913C0190913D0109950E946903FF915E
S11315A0EF91BF91AF919F918F917F916F915F91D7
S11315B04F913F912F910F900FBE0F901F90189550
S11315C01F920F920FB60F9211242F933F934F93B4
S11315D05F936F937F938F939F93AF93BF93EF9397
S11315E0FF93209112013091130140918400509196
S11315F08500C901032E000CAA0BBB0BDC01992743
S1131600882760E070E0842B952BA62BB72B809362
S1131610140190931501A0931601B0931701B09B88
S11316201BC04091840050918500C9010196092E88
S1131630000CAA0BBB0BDC019927882760E070E043
S1131640842B952BA62BB72B809314019093150113
S1131650A0931601B0931701E091D601F091D70140
S1131660309739F061E170E080913E0190913F0143
S113167009950E946903FF91EF91BF91AF919F91EA
S11316808F917F916F915F914F913F912F910F9027
S11316900FBE0F901F9018951F920F920FB60F92C6
S11316A011242F933F934F935F936F937F938F9363
S11316B09F93EF93FF9380911201909113010196F0
S11316C09093130180931201E0911801F091190194
S11316D0309739F042815381648175818617970769
S11316E0A1F080916F008D7F80936F00FF91EF9147
S11316F09F918F917F916F915F914F913F912F9126
S11317000F900FBE0F901F901895CA01209184006E
S113171030918500421B530B4130510551F0909399
S113172089008093880080916F00826080936F00AD
S1131730DDCF80918400909185000196F0CF1F92B7
S11317400F920FB60F9211248F929F92AF92BF9275
S1131750CF92DF92EF92FF920F931F932F933F93B9
S11317604F935F936F937F938F939F93AF93BF93A5
S1131770CF93DF93EF93FF93E0901201F090130166
S11317808091840090918500B09998C047010F2CF6
S1131790000CAA08BB08540199248824A0E0B0E0F6
S11317A0882A992AAA2ABB2AC0911801D091190122
S11317B080911A0190911B01209709F43FC04A813E
S11317C05B816C817D818A019B01081919092A09B1
S11317D03B0910161106120613060CF440C0D880FB
S11317E0C9800097B9F10E811F8128853985FC01D4
S11317F046815781608571850417150726073707C9
S11318004CF1DC010AC0468157816085718504175B
S1131810150726073707DCF0DF01ED91FC911197DE
S1131820309789F719821882CD93DC93382F292FAA
S1131830CD2DDC2D832F922F209709F610921901BC
S11318401092180190931B0180931A0113C0F9831D
S1131850E883EACF998388833C2F2D2FE9CFD09357
S11318601901C093180190931B0180931A01E61685
S1131870F706D9F180916F008D7F80936F000E94ED
S11318806903FF91EF91DF91CF91BF91AF919F9148
S11318908F917F916F915F914F913F912F911F9104
S11318A00F91FF90EF90DF90CF90BF90AF909F90FB
S11318B08F900F900FBE0F901F9018952091840069
S11318C03091850047018FEF881A980A092C000C83
S11318D0AA08BB08D401992788274901A12CB12C57
S11318E0882A992AAA2ABB2A5FCFCA012091840098
S11318F030918500421B530B4130510551F09093B8
S113190089008093880080916F00826080936F00CB
S1131910B6CF80918400909185000196F0CF3F92DC
S11319204F925F926F927F928F929F92AF92BF92EB
S1131930CF92DF92EF92FF920F931F93CF93DF9397
S1131940EFB7E0783E2EF894C0910601D0910701DC
S1131950209709F452C1E881F981F0930701E093DB
S113196006011B870A87FD86EC86DF86CE86332038
S113197009F46FC0E0910001F09101010280F3814C
S1131980E02DC280D380E480F580C60ED71EE81E09
S1131990F91ECA82DB82EC82FD821216130614063B
S11319A015060CF0F8C0DA01C9018C019D010C0D7B
S11319B01D1D2E1D3F1D0E831F832887398780918F
S11319C01201909113016091840070918500B09987
S11319D049C02C01092E000C66087708520199248D
S11319E088242B01612C712C482859286A287B28CB
S11319F0B701A60144195509660977091416150695
S1131A00160617060CF068C0A0911801B0911901D0
S1131A10109709F4DCC012960D911D912D913C9103
S1131A201597C016D106E206F3065CF4D0C04281D5
S1131A30538164817581C416D506E606F7064CF118
S1131A40DF01ED91FC911197309789F71982188283
S1131A5022C0C0901401D0901501E0901601F090BE
S1131A60170193CFE0918400F09185002C014FEF92
S1131A70441A540A052C000C66087708B20155274D
S1131A8044272F01612C712C442A552A662A772A6F
S1131A90AFCFF983E883CD93DC938217930709F4DE
S1131AA07FC080916F008D7F80936F00332009F099
S1131AB07894CE01DF91CF911F910F91FF90EF9019
S1131AC0DF90CF90BF90AF909F908F907F906F905A
S1131AD05F904F903F900895A0911A01B0911B011F
S1131AE0109709F483C01696CD90DD90ED90FC908C
S1131AF019970C151D052E053F0564F477C0C680A3
S1131B00D780E084F1840C151D052E053F050CF4E7
S1131B105BC0DF01ED91FC911197309781F7198239
S1131B201882CD93DC93332021F2809104019091AB
S1131B300501009709F4BCCFE0910201F091030183
S1131B4020911A0130911B0102811381D90116964B
S1131B504D915D916D917C911997D80116960D91D7
S1131B601D912D913C911997401B510B620B730BE6
S1131B7077FF9ECFDC012D913C91119730930501A5
S1131B8020930401ED93FC9390930301809302014D
S1131B900E9449038DCF8FEF9FEFAFEFBFE705CFD3
S1131BA0C8014091840050918500041B150B01303D
S1131BB01105B1F0909389008093880080916F00A3
S1131BC0826080936F0072CFF983E883AACFB983D0
S1131BD0A883D0931901C0931801970186015DCFA2
S1131BE080918400909185000196E4CFB983A88305
S1131BF0D0931B01C0931A0196CF0E94A903CF92E0
S1131C00DF92EF92FF920F931F93CF93DF93EC0138
S1131C107B016A011FB71078F894A881B9811097E5
S1131C2019F462C0A081B1811496ED91FC911597CD
S1131C303097C1F720910001309101012A173B0729
S1131C4009F44CC01123A1F18A819B81009719F0FA
S1131C50FC01158214823B832A83F901D583C48352
S1131C60CD010E944903E0910001F09101018281BC
S1131C709381892B09F441C0F983E8838A819B818C
S1131C80019709F07894B601CE01F7010995F82E71
S1131C90092F8FB7F894198218828A819B81823028
S1131CA09105A0F4112379F078948F2D902F02C020
S1131CB08FEF9FEFDF91CF911F910F91FF90EF90E6
S1131CC0DF90CF9008958F2D902FF4CF1B821A822E
S1131CD0FC01158214820E944903E4CF112341F3CD
S1131CE078948FEF9FEFE6CF8091000190910101EE
S1131CF099838883112339F2C1CF789480E090E0EE
S1131D00D9CFC0911A01D0911B01E0910001F0914B
S1131D100101209709F46EC08881998190931B0179
S1131D2080931A01D383C28378944E855F856C8532
S1131D307D858A859B850E94FF0D8FB7F8948091DD
S1131D4006019091070199838883D0930701C0937A
S1131D500601E0900201F0900301F701A081B18136
S1131D6012968D919C911397C0911A01D0911B01E9
S1131D702097A9F0009749F24E815F8168857985A3
S1131D80FC010681178120853185401B510B620BB4
S1131D90730B14161506160617060CF0B6CFB0937F
S1131DA00301A09302018091040190910501F701C0
S1131DB091838083F0920501E09204011496ED91E1
S1131DC0FC911597309741F0A081B1811496ED9163
S1131DD0FC9115973097C1F7CD010E944903C0913A
S1131DE01A01D0911B01E0910001F09101012097AB
S1131DF009F092CF0E94A9034231B8F42FB7F894A6
S1131E0050E0440F551FFA01E45EFE4F9183808336
S1131E10FA01EC54FE4F7183608341E050E0FC0111
S1131E205383428327FF01C0789408958C017B017A
S1131E306A018FB7F8940E94DE027894E114F104E9
S1131E4041F020E030E0A90160E070E0CB010E94A5
S1131E508F0C8FB7F8940E946903789481E083BF54
S1131E608895FDCF052E97FB1EF400940E94490F20
S1131E7057FD07D00E94570F07FC03D04EF40C9473
S1131E80490F50954095309521953F4F4F4F5F4FE7
S1131E90089590958095709561957F4F8F4F9F4FD2
S1131EA00895EE0FFF1F0590F491E02D0994A1E22F
S1131EB01A2EAA1BBB1BFD010DC0AA1FBB1FEE1FC0
S1131EC0FF1FA217B307E407F50720F0A21BB30B0B
S1131ED0E40BF50B661F771F881F991F1A9469F787
S1131EE060957095809590959B01AC01BD01CF01E3
S1131EF00895DC012D923D924D925D926D927D92FA
S1131F008D929D92AD92BD92CD92DD92ED92FD9215
S1131F100D931D93CD93DD93FF91EF918DB78D9329
S1131F208EB78D938FB78D93ED93FD938827992763
S1131F300994DC01CB0181309105811D2D903D90E8
S1131F404D905D906D907D908D909D90AD90BD90E5
S1131F50CD90DD90ED90FD900D911D91CD91DD9191
S1131F60ED91FD910D90F894FEBF0FBEEDBFED9184
S10B1F70FD910994F894FFCFE0
S1131F78D801D8014001F501000000001E0000004E
S1051F88010052
S9030000FC
